:020000040000FA
:020000000628D0
:080008000B18B42886018501E4
:100010008316F030860000308500831218205320AC
:10002000772001309200A8308B0001309100932A94
:100030000230850085220230850085220830850047
:1000400085220030850085220F3085008522003012
:1000500085008522013085008522003085008522BB
:1000600006308500852208008F00F0399000900C42
:10007000900C900C900C10301004850085220F30ED
:100080000F0510388500852208008F00F039900098
:10009000900C900C900C100C850085220F300F05F1
:1000A0008500852208002030342020303420203084
:1000B00034204D303420413034205A303420453003
:1000C000342020303420533034204F3034204C3012
:1000D00034205630342045303420523034207922B8
:1000E00000308500852201308500852208002030FF
:1000F000342020303420203034202A303420443042
:1001000034204530342046303420413034205530BE
:1001100034204C303420543034200C30850085227B
:10012000003085008522203034204F30342042308A
:100130003420533034205430342041303420433084
:1001400034204C30342045303420203034202030CE
:100150003420203034204D303420413034205A3087
:1001600034204530342008000B101218BE28921895
:10017000C3281219C8289219C7280900061EDB20B7
:10018000861E032109001730861E2322090008005D
:10019000061ED020861ED8200900C0304520090048
:1001A000B00A3030840000300007B000452008005D
:1001B000FF30342008001118E2289118ED28111999
:1001C000F82808008330452020303420C0304520F6
:1001D0002A30342011109114E128C03045202030FD
:1001E0003420CB3045202A30342091101115E128DD
:1001F000CB30452020303420833045202A30342035
:1002000011111114E128013045201118C929911844
:100210000C2911196B290800043092008611533003
:10022000930034205F30940034205F3095003420F8
:100230005F30960034205F30970034205F309800A4
:1002400034205F30990034205F309A0034205F30D2
:100250009B0034205F309C0034202030342020303C
:1002600034202030342053303420203034204030AB
:100270003420C03045205F309D0034205F309E0028
:1002800034205F309F0034205F30A00034205F3086
:10029000A10034205F30A20034205F30A30034205E
:1002A0005F30A40034205F30A50034204530A60024
:1002B000342020303420203034202030342030309E
:1002C00034202C303420303034200130AE008030E7
:1002D000B00045200800083092005F3093003420C1
:1002E0005F30940034205F30950034205F309600FA
:1002F00034205F30970034205F30980034205F3026
:10030000990034205F309A0034205F309B00342005
:100310005F309C00342020303420203034202030C6
:100320003420533034202030342040303420C0304A
:1003300045205F309D0034205F309E0034205F30C8
:100340009F0034205F30A00034205F30A1003420B3
:100350005F30A20034205F30A30034205F30A4005F
:1003600034205F30A50034204530A60034202030F2
:1003700034202030342020303420303034202C30D1
:100380003420303034200130AE008030B000E1281D
:100390000900023092000611FF30930034205F30D4
:1003A000940034205F30950034205F309600342074
:1003B0005F30970034205330980034205F3099002C
:1003C00034205F309A0034205F309B0034205F304F
:1003D0009C00342020303420203034202030342041
:1003E000533034202030342040303420C030452079
:1003F00045309D003420FF309E0034205F309F0048
:100400003420FF30A0003420FF30A10034205F30C2
:10041000A20034205F30A30034205F30A4003420D9
:10042000FF30A5003420FF30A600342020303420D7
:100430002030342020303420303034202C30342010
:1004400035303420E128A7000E3045200930A800BF
:100450008B30452049303420543034205230342001
:100460003030342031303420CD304520203034201D
:1004700020303420203034203030A9003030AA0021
:1004800000302707B100A90AA80B472A6E2A8E3030
:1004900045202A30742234202930742234206E30D2
:1004A0003107AB00310AAC001B302C02000B682A6C
:1004B00000302C07742243302D0B672A5F2A2A3024
:1004C00080006E30310745202A303420522A08003F
:1004D00025302C02000B6D2A582A0800AA0A093080
:1004E000A8003030A900472A840000300007AD0082
:1004F000080000308E008D000A308C008E0F7E2A9E
:100500008D0F7E2A8C0B7E2A080086140000861030
:100510008A22080000308D0033308C008D0F8E2A27
:080520008C0B8E2A0800932ABF
:00000001FF
